:2000000012C017C016C015C014C013C012C011C010C00FC00EC00DC00CC00BC00AC009C0DE
:2000200008C007C006C011241FBECFEDCDBF02D05BC0E6CF8AB383608ABB9FEF97BB91BBDE
:200040008BB38C7F8BBB92BB40E068EC70E05FEFA1E0B0E02AC052BBCD01042E02C0880F51
:20006000991F0A94E2F788BB88E893E1FB013197F1F70197D9F74430B8F420E030E0CD0118
:20008000022E02C0880F991F0A94E2F7809582BB88E893E1FB013197F1F70197D9F72F5FD0
:2000A0003F4F2730310559F74F5F4830A0F218BA8BB38D6F8BBB88E893E1FB013197F1F73B
:2000C0000197D9F78BB38C7F8BBB8BB38E6F8BBB88E893E1FB013197F1F70197D9F78BB372
:0C00E0008C7F8BBB40E0B7CFF894FFCFC3
:00000001FF
